:0400000046EF00F0D7
:1000080000C015F0F2A20DD0000E006E1750005C73
:1000180002E11650000804E2010E165E000E175A9F
:10002800F292F0A003D0164A172AF09015C000F0FB
:020038001100B5
:10003A00FF0E216EFF0E226EFF0E236EFF0E246E40
:10004A006A0E1D6E000E1E6E250E1F6E000E206EAD
:10005A00949A94969488C66A400EC76EC68A12000D
:10006A0025C0C9FFC7B002D00000FCD7C9CF00F035
:02007A00120072
:10007C000900F5CFE6FF0006FBE10106F9E11200ED
:10008C00166A176A186A196A1A6A300E1B6E1C6A8D
:10009C00946A030E936E010E826EC9DF070EC16E59
:1000AC00F292F288F18CF090F086F18AF19EF28E49
:1000BC0082901C50000A22E11BC000F0016A00C0B3
:1000CC0025F0CDDF1AC025F0CADF8280030E0D6E3D
:1000DC000D2EFED7000000001A4A1B2A186A196A56
:1000EC001950175C02E11850165C08E3060E0D6EF1
:1000FC000D2EFED70000184A192AF2D71C50010AFF
:10010C0024E11BC000F0016A00C025F0A8DF1AC072
:10011C0025F0A5DF8280030E0D6E0D2EFED700009C
:10012C000000010E1A5E000E1B5A186A196A19504B
:10013C00175C02E11850165C08E3060E0D6E0D2ECE
:10014C00FED70000184A192AF2D71B503F0A02E1C9
:10015C00FF0E1A1802E1010E1C6E1B50300A02E150
:0C016C00000E1A18D8B41C6AA3D7FFD7E5
:020000040030CA
:0D000100220F0EFF0181FF0FC00FE00F4026
:00000001FF
