:0400000046EF05F0D2
:1000080000C018F001C017F00CC016F00DC015F0B4
:10001800F2A405D0C284480ED76EE50ED66E9EAC0B
:100028004AD0C4CF01F0006A00C035F001C036F0F4
:10003800C3500024026E000E0120036E02C035F08A
:1000480003C036F03D50031802E102503C182FE07F
:1000580035C000F036C001F0ACDA23C004F024C08B
:1000680005F025C006F026C007F00CD900C038F00E
:1000780001C039F002C03AF003C03BF000C03EF0C6
:1000880001C03FF002C040F003C041F0270E426EAD
:10009800000E436EEBDA010E506E48D8010E3E6E2C
:1000A800010E3F6E270E406E000E416EA2DA35C07B
:1000B8003CF036C03DF0F2949E9C18C000F017C08A
:0C00C80001F016C00CF015C00DF0110086
:1000D4000F0E0C6E470E0D6E0D2EFED70C2EFCD798
:0600E40000000000120004
:0600EA00000000001200FE
:0A00F000210E0D6E0D2EFED712003A
:1000FA000B820BAE87EF00F00368026801680068A4
:08010A000A360232FF0E12005A
:100112000B840BAE94EF00F0010E036E026A016ACB
:0A012200006A0A360232FF0E1200D6
:08012C000AAE029E000E120053
:1001340050BE02D0839E01D0838E50BC02D0839CDB
:1001440001D0838C50BA02D0839A01D0838A50B8EC
:1001540002D0839801D0838837B002D0838401D041
:1001640083948386C0DF839650B602D0839E01D0E9
:10017400838E50B402D0839C01D0838C50B202D0C1
:10018400839A01D0838A50B002D0839801D08388A7
:1001940037B002D0838401D083948386A4DF83960E
:0C01A40037A002D095DF01D0A1DF1200CF
:0E01B000026A016A006A086A036A000E120001
:1001BE000A6A0350D8A40A800750D8A40A820A50AB
:1001CE00D8B442EF01F0030AD8B4FBEF00F00AB046
:1001DE00F6EF00F006AE40EF01F03EEF01F002AE9A
:1001EE003EEF01F040EF01F00250800B0A6E029ECE
:1001FE000650800B069E0A18D8B40CEF01F00A5078
:10020E00D8B43EEF01F040EF01F00750035CD8B4D4
:10021E0016EF01F0D8A032EF01F038EF01F00650E2
:10022E00025CD8B420EF01F0D8A032EF01F038EF25
:10023E0001F00550015CD8B42AEF01F0D8A032EFDE
:10024E0001F038EF01F00450005CD8B442EF01F039
:10025E00D8B038EF01F00A52D8B440EF01F03EEFBB
:10026E0001F00A52D8B43EEF01F040EF01F0D88011
:0E027E001200D8901200D880D884120012000E
:10028C00086A096A000E07620364CBEF01F00250A2
:10029C0006180A6E075003267E0ED8A05CEF01F0FC
:1002AC00035ED8B0CFEF01F060EF01F0035ED8A091
:1002BC00D3EF01F0028E068E02C00EF001C00BF0DF
:1002CC0000C00DF000500402F4CF0CF001500502F8
:1002DC00F4CF00F0F3CF08F00402F3500C26F450E6
:1002EC000822000E00220D500502F3500C26F4508B
:1002FC000822000E002202500402F3500826F4508B
:10030C00002202500502016A000E0122F350002661
:10031C00F45001220D500602F3500826F45000222E
:10032C00026A000E012202220B500602F350002634
:10033C00F4500122000E02220E500602F350012648
:10034C00F450022202BEB3EF01F00836003601363B
:10035C0002360306D8B4D3EF01F0C6EF01F0D88013
:10036C00800E08640030000E002201220222D8A068
:10037C00C6EF01F0023201320032034ACFEF01F036
:10038C000AAE029E000ED5EF01F0010E0BDFD5EF89
:10039C0001F0020EACDED5EF01F0040EB4DE12005B
:0C03AC0037904CC050F0C0DE37801200CB
:1003B8000D6A086A0050D8B4000C04180A6E0ABE08
:1003C8000D1E0B6A04AE02D0041E042A00AE02D031
:1003D800001E002A005004100A6E0ABE1FD00450E6
:1003E800085E003600340836045008260036060E2B
:1003F8000C6E00340836045000B0085E00A00826D1
:1004080000360C2EF6D700A008260BB015D00DAE7E
:10041800000C001E002A081E082A000C04AE09D091
:1004280000BE04D00050086E006AF1D7006A002AA6
:10043800000C001E0B2AD3D7082A0450085CD8A445
:0E044800E6D7086A002A00AEE2D7FF0C1200C9
:100456000C6A0E6A0250D8A444EF02F001C002F002
:1004660000C001F0006A0E860250D8A444EF02F0E4
:1004760001C002F0016A0E960E880250D8B456EFFB
:1004860002F00E50035ED8A4D8A05BEF02F0D8901D
:1004960002BE60EF02F0003601360236032E4BEF45
:1004A60002F05BEF02F0010E0C6E7FDE63EF02F0EE
:1004B600020E0C6E2BDE63EF02F0040E0C6E33DEC2
:0204C600120022
:1004C8004CC004F04DC005F004C002F005C003F0B4
:1004D800044A052A4EC000F04FC001F04E4A4F2A88
:1004E80000C0E9FF01C0EAFF02C0E1FF03C0E2FF6C
:1004F800EECFE6FF02C0E9FF03C0EAFFEE5201E0DB
:0C050800E3D74CC000F04DC001F0120021
:10051400959695949598959A959C959E8396839493
:10052400839E839C839A8398D3DDD2DDD1DD838A35
:1005340083888386D8DD8396CBDD8386D4DD83965A
:10054400C7DD8386D0DD8396C3DD83988386CBDDC8
:100554008396BEDD8386C7DD8396839A838E8386E6
:10056400C2DD8396B5DD839E83888386BCDD839656
:1005740083988386B8DD8396ABDD8386B4DD83966A
:1005840083888386B0DD8396A3DD83988386ABDD81
:100594008396838E838C838A83888386A4DD839663
:0605A40097DD3780120014
:1005AA000900F5CFE6FF0006FBE10106F9E11200BA
:1005BA0000C008F00150006E016A026A036A0B6A01
:1005CA000C6A016A026A036A960E036E0A6A00AE30
:1005DA00F5EF02F0081E001E082AD8B4002A0A8E77
:1005EA0000C001F008C000F0086A026A2FDF12009A
:1005FA000FD0800E3E6E19D0C00E3E6E16D0940EED
:10060A003E6E13D0D40E3E6E10D0800E3E6E0DD0CC
:10061A003E50010AEEE03E50020AEEE03E50030A66
:10062A00EEE03E50040AEEE0F0D73F04006E3E5082
:10063A00002600C03EF000C050F077DD3790426AD5
:10064A0042504024E96E000E4120EA6EEE520BE061
:10065A0042504024E96E000E4120EA6EEECF4CF083
:0A066A00A0DE422AEDD7378012000F
:100674004A6A4B6A3EC046F03FC047F040C048F06B
:1006840041C049F04950FF0A08E14850FF0A05E11A
:100694004750FF0A02E14650FF0A0CE142C04CF009
:1006A40043C04DF0190E4E6E000E4F6E0BDF030E5D
:1006B400006EE9D1010E446E48AE0ED0800E48188B
:1006C400006E00C048F0442A42C0E1FF43C0E2FF8C
:1006D4002D0EE66E424A432A000E006E491808E1C8
:1006E4000050481805E10050471802E14650000A3E
:1006F4000BE142C04CF043C04DF0210E4E6E000E93
:100704004F6EE0DE006ABFD14950FF0A08E148504D
:10071400000A05E14750000A02E14650000A0CE1D4
:1007240042C04CF043C04DF01D0E4E6E000E4F6E95
:10073400C9DE44C000F0A7D1000E046E000E056EA1
:10074400000E066E7F0E076E46C000F047C001F033
:1007540048C002F049C003F030DD010ED8B0000EED
:10076400006E00521BE046C000F047C001F048C0D4
:1007740002F049C003F0000E046E000E056E200E58
:10078400066E820E076E80DD00C046F001C047F0A1
:1007940002C048F003C049F04B06CED7000E046EE9
:1007A400000E056E200E066E820E076E46C000F027
:1007B40047C001F048C002F049C003F0FEDC000E5F
:1007C400D8B0010E006E00521BE046C000F047C0D6
:1007D40001F048C002F049C003F0CD0E046ECC0E07
:1007E400056E4C0E066E7B0E076E4EDD00C046F0A5
:1007F40001C047F002C048F003C049F04B2ACED7ED
:10080400FF0E4614086EFF0E4714096E7F0E48143F
:100814000A6E000E49140B6E08C004F009C005F0FE
:100824000AC006F00BC007F00436049005360636FD
:100834000736000E4614006E000E4714016E000EBB
:100844004814026EFF0E4914036E00C046F001C046
:1008540047F002C048F003C049F004504610006E4F
:1008640005504710016E06504810026E075049109B
:10087400036E00C046F001C047F002C048F003C058
:1008840049F07F0E495C006E00C045F0010E496ED0
:1008940000C004F046C000F047C001F048C002F0B8
:1008A40049C003F0045007E00036009001360236D8
:1008B4000336FF0FF8D700C046F001C047F002C06E
:1008C40048F003C049F042C0E1FF43C0E2FF495091
:1008D400300FE66E424A432A800E4B18006E800E9B
:1008E400010A005C08E3800E060A006E800E4B18B5
:1008F400005C01E30AD042C0E1FF43C0E2FF2E0ED8
:10090400E66E424A432A010E4A6E060E456E455073
:10091400000A54E0496A46C000F047C001F048C0EC
:1009240002F049C003F00036009001360236033667
:1009340000360090013602360336465000264750F2
:100944000122485002224950032200C046F001C04F
:1009540047F002C048F003C049F046C000F047C069
:1009640001F048C002F049C003F00036009001369F
:100974000236033600C046F001C047F002C048F01A
:1009840003C049F042C0E1FF43C0E2FF4950300FC9
:10099400E66E424A432A4A50000A0EE14B064B5087
:1009A400000A0AE142C0E1FF43C0E2FF2E0EE66EF8
:1009B400424A432A010E4A6E4506A9D7FF0E422435
:1009C400E96EFF0E4320EA6EEE50300A05E1010E97
:1009D400425E000E435AF2D7FF0E4224E96EFF0E28
:1009E4004320EA6EEE502E0A04E1010E425E000E30
:1009F400435A4B50000A41E042C0E1FF43C0E2FFCA
:100A0400650EE66E424A432A800E4B18006E800E35
:100A1400000A005C0BE242C0E1FF43C0E2FF2D0E7E
:100A2400E66E424A432A4B5000084B6E4BC045F0D9
:100A3400800E090A006E800E4B18005C0EE20A0E4E
:100A4400046E45C000F0B6DC42C0E1FF43C0E2FFE3
:100A54000050300FE66E424A432A0A0E046E45C027
:100A640000F0A8DC08C000F042C0E1FF43C0E2FF90
:100A74000050300FE66E424A432A42C0E1FF43C0B1
:080A8400E2FFE66A006A1200BD
:100A8C0063EC05F041DD710EC26EC00EC16E9E9C12
:100A9C009D8CF28CF28E850ED56EF294F28A480EF5
:0C0AAC00D76EE50ED66EC284FFD7FFD7D0
:100AC60010EE19F00E0E006E010E016EB80EF66EE7
:0E0AD6000A0EF76E000EF86ED5EC02F012005C
:040AB8004E614E003D
:040ABC00494E460059
:020AC000300004
:040AC200903E7A7D6B
:020000040030CA
:0D000100220F0EFF0181FF0FC00FE00F4026
:00000001FF
