:0400000094EF00F089
:1000080000C016F001C015F0F2A406D0C284480E54
:10001800D76EE50ED66EF2949EAC1CD0C4CF01F01C
:10002800006A00C017F001C018F0C3500024026E27
:10003800000E0120036E02C017F003C018F01A501A
:10004800031802E10250191800E017C019F018C08F
:0E0058001AF09E9C16C000F015C001F01100B9
:100066000F0E0C6E470E0D6E0D2EFED70C2EFCD706
:0600760000000000120072
:06007C000000000012006C
:10008200959695949598959A959C959E839683942A
:10009200839E839C839A8398E5DFE4DFE3DF838A90
:1000A20083888386EADF8396DDDF8386E6DF8396B5
:1000B200D9DF8386E2DF8396D5DF83988386DDDF0F
:1000C2008396D0DF8386D9DF8396839A838E838655
:1000D200D4DF8396C7DF839E83888386CEDF8396B1
:1000E20083988386CADF8396BDDF8386C6DF8396C5
:1000F20083888386C2DF8396B5DF83988386BDDFDC
:100102008396838E838C838A83888386B6DF8396E5
:06011200A9DF1B801200B2
:100118000900F5CFE6FF0006FBE10106F9E1120050
:1001280093809682AADF710EC26EC00EC16E9E9C2D
:100138009D8CF294F28AF292F288F19EF19CF28CF4
:08014800F28EC284FFD7FFD73D
:020000040030CA
:0D000100220F0EFF0181FF0FC00FE00F4026
:00000001FF
