:040000004BEF05F0CD
:1000080000C018F001C017F00CC016F00DC015F0B4
:10001800C4CF01F0006A00C035F001C036F0C3500B
:100028000024026E000E0120036E02C038F003C0E7
:1000380039F03F50031802E102503E182FE038C053
:1000480000F039C001F0BADA19C004F01AC005F09E
:100058001BC006F01CC007F01AD900C03AF001C056
:100068003BF002C03CF003C03DF000C040F001C0CE
:1000780041F002C042F003C043F0270E446E000E68
:10008800456EF9DA010E526E56D8010E406E010E19
:10009800416E270E426E000E436EB0DA0B0E0B6EE9
:1000A800260E0C6E5D0E0D6E0D2EFED70C2EFCD797
:1000B8000B2EFAD700000000C28438C03EF039C0C9
:1000C8003FF09E9C18C000F017C001F016C00CF05D
:0600D80015C00DF011003F
:1000DE000F0E0C6E470E0D6E0D2EFED70C2EFCD78E
:0600EE00000000001200FA
:0600F400000000001200F4
:0A00FA00210E0D6E0D2EFED7120030
:100104000B820BAE8CEF00F0036802680168006894
:080114000A360232FF0E120050
:10011C000B840BAE99EF00F0010E036E026A016ABC
:0A012C00006A0A360232FF0E1200CC
:080136000AAE029E000E120049
:10013E0052BE02D0839E01D0838E52BC02D0839CCD
:10014E0001D0838C52BA02D0839A01D0838A52B8DE
:10015E0002D0839801D0838837B002D0838401D037
:10016E0083948386C0DF839652B602D0839E01D0DD
:10017E00838E52B402D0839C01D0838C52B202D0B3
:10018E00839A01D0838A52B002D0839801D083889B
:10019E0037B002D0838401D083948386A4DF839604
:0C01AE0037A002D095DF01D0A1DF1200C5
:0E01BA00026A016A006A086A036A000E1200F7
:1001C8000A6A0350D8A40A800750D8A40A820A50A1
:1001D800D8B447EF01F0030AD8B400EF01F00AB031
:1001E800FBEF00F006AE45EF01F043EF01F002AE81
:1001F80043EF01F045EF01F00250800B0A6E029EBA
:100208000650800B069E0A18D8B411EF01F00A5068
:10021800D8B443EF01F045EF01F00750035CD8B4C0
:100228001BEF01F0D8A037EF01F03DEF01F00650C9
:10023800025CD8B425EF01F0D8A037EF01F03DEF0C
:1002480001F00550015CD8B42FEF01F0D8A037EFCA
:1002580001F03DEF01F00450005CD8B447EF01F025
:10026800D8B03DEF01F00A52D8B445EF01F043EFA2
:1002780001F00A52D8B443EF01F045EF01F0D880FD
:0E0288001200D8901200D880D8841200120004
:10029600086A096A000E07620364D0EF01F0025093
:1002A60006180A6E075003267E0ED8A061EF01F0ED
:1002B600035ED8B0D4EF01F065EF01F0035ED8A07D
:1002C600D8EF01F0028E068E02C00EF001C00BF0D0
:1002D60000C00DF000500402F4CF0CF001500502EE
:1002E600F4CF00F0F3CF08F00402F3500C26F450DC
:1002F6000822000E00220D500502F3500C26F45081
:100306000822000E002202500402F3500826F45080
:10031600002202500502016A000E0122F350002657
:10032600F45001220D500602F3500826F450002224
:10033600026A000E012202220B500602F35000262A
:10034600F4500122000E02220E500602F35001263E
:10035600F450022202BEB8EF01F00836003601362C
:1003660002360306D8B4D8EF01F0CBEF01F0D880FF
:10037600800E08640030000E002201220222D8A05E
:10038600CBEF01F0023201320032034AD4EF01F022
:100396000AAE029E000EDAEF01F0010E0BDFDAEF75
:1003A60001F0020EACDEDAEF01F0040EB4DE12004C
:0C03B60037904EC052F0C0DE37801200BD
:1003C2000D6A086A0050D8B4000C04180A6E0ABEFE
:1003D2000D1E0B6A04AE02D0041E042A00AE02D027
:1003E200001E002A005004100A6E0ABE1FD00450DC
:1003F200085E003600340836045008260036060E21
:100402000C6E00340836045000B0085E00A00826C6
:1004120000360C2EF6D700A008260BB015D00DAE74
:10042200000C001E002A081E082A000C04AE09D087
:1004320000BE04D00050086E006AF1D7006A002A9C
:10044200000C001E0B2AD3D7082A0450085CD8A43B
:0E045200E6D7086A002A00AEE2D7FF0C1200BF
:100460000C6A0E6A0250D8A449EF02F001C002F0F3
:1004700000C001F0006A0E860250D8A449EF02F0D5
:1004800001C002F0016A0E960E880250D8B45BEFEC
:1004900002F00E50035ED8A4D8A060EF02F0D8900E
:1004A00002BE65EF02F0003601360236032E50EF31
:1004B00002F060EF02F0010E0C6E7FDE68EF02F0DA
:1004C000020E0C6E2BDE68EF02F0040E0C6E33DEB3
:0204D000120018
:1004D2004EC004F04FC005F004C002F005C003F0A6
:1004E200044A052A50C000F051C001F0504A512A76
:1004F20000C0E9FF01C0EAFF02C0E1FF03C0E2FF62
:10050200EECFE6FF02C0E9FF03C0EAFFEE5201E0D0
:0C051200E3D74EC000F04FC001F0120013
:10051E00959695949598959A959C959E8396839489
:10052E00839E839C839A8398D3DDD2DDD1DD838A2B
:10053E0083888386D8DD8396CBDD8386D4DD839650
:10054E00C7DD8386D0DD8396C3DD83988386CBDDBE
:10055E008396BEDD8386C7DD8396839A838E8386DC
:10056E00C2DD8396B5DD839E83888386BCDD83964C
:10057E0083988386B8DD8396ABDD8386B4DD839660
:10058E0083888386B0DD8396A3DD83988386ABDD77
:10059E008396838E838C838A83888386A4DD839659
:0605AE0097DD378012000A
:1005B4000900F5CFE6FF0006FBE10106F9E11200B0
:1005C40000C008F00150006E016A026A036A0B6AF7
:1005D4000C6A016A026A036A960E036E0A6A00AE26
:1005E400FAEF02F0081E001E082AD8B4002A0A8E68
:1005F40000C001F008C000F0086A026A2FDF120090
:100604000FD0800E406E19D0C00E406E16D0940EDE
:10061400406E13D0D40E406E10D0800E406E0DD0BC
:100624004050010AEEE04050020AEEE04050030A56
:10063400EEE04050040AEEE0F0D74104006E405072
:10064400002600C040F000C052F077DD3790446AC5
:1006540044504224E96E000E4320EA6EEE520BE051
:1006640044504224E96E000E4320EA6EEECF4EF071
:0A067400A0DE442AEDD73780120003
:10067E004C6A4D6A40C048F041C049F042C04AF051
:10068E0043C04BF04B50FF0A08E14A50FF0A05E108
:10069E004950FF0A02E14850FF0A0CE144C04EF0F7
:1006AE0045C04FF01D0E506E000E516E0BDF030E47
:1006BE00006EE9D1010E466E4AAE0ED0800E4A187B
:1006CE00006E00C04AF0462A44C0E1FF45C0E2FF7A
:1006DE002D0EE66E444A452A000E006E4B1808E1B8
:1006EE0000504A1805E10050491802E14850000A2E
:1006FE000BE144C04EF045C04FF0250E506E000E7B
:10070E00516EE0DE006ABFD14B50FF0A08E14A503D
:10071E00000A05E14950000A02E14850000A0CE1C6
:10072E0044C04EF045C04FF0210E506E000E516E7B
:10073E00C9DE46C000F0A7D1000E046E000E056E95
:10074E00000E066E7F0E076E48C000F049C001F025
:10075E004AC002F04BC003F030DD010ED8B0000EDF
:10076E00006E00521BE048C000F049C001F04AC0C4
:10077E0002F04BC003F0000E046E000E056E200E4C
:10078E00066E820E076E80DD00C048F001C049F093
:10079E0002C04AF003C04BF04D06CED7000E046ED9
:1007AE00000E056E200E066E820E076E48C000F01B
:1007BE0049C001F04AC002F04BC003F0FEDC000E4F
:1007CE00D8B0010E006E00521BE048C000F049C0C8
:1007DE0001F04AC002F04BC003F0CD0E046ECC0EF9
:1007EE00056E4C0E066E7B0E076E4EDD00C048F099
:1007FE0001C049F002C04AF003C04BF04D2ACED7DB
:10080E00FF0E4814086EFF0E4914096E7F0E4A142F
:10081E000A6E000E4B140B6E08C004F009C005F0F2
:10082E000AC006F00BC007F00436049005360636F3
:10083E000736000E4814006E000E4914016E000EAD
:10084E004A14026EFF0E4B14036E00C048F001C036
:10085E0049F002C04AF003C04BF004504810006E3D
:10086E0005504910016E06504A10026E07504B108B
:10087E00036E00C048F001C049F002C04AF003C048
:10088E004BF07F0E4B5C006E00C047F0010E4B6EBE
:10089E0000C004F048C000F049C001F04AC002F0A8
:1008AE004BC003F0045007E00036009001360236CC
:1008BE000336FF0FF8D700C048F001C049F002C060
:1008CE004AF003C04BF044C0E1FF45C0E2FF4B507D
:1008DE00300FE66E444A452A800E4D18006E800E8B
:1008EE00010A005C08E3800E060A006E800E4D18A9
:1008FE00005C01E30AD044C0E1FF45C0E2FF2E0ECA
:10090E00E66E444A452A010E4C6E060E476E47505F
:10091E00000A54E04B6A48C000F049C001F04AC0DA
:10092E0002F04BC003F0003600900136023603365B
:10093E0000360090013602360336485000264950E4
:10094E0001224A5002224B50032200C048F001C03F
:10095E0049F002C04AF003C04BF048C000F049C055
:10096E0001F04AC002F04BC003F000360090013691
:10097E000236033600C048F001C049F002C04AF00A
:10098E0003C04BF044C0E1FF45C0E2FF4B50300FB7
:10099E00E66E444A452A4C50000A0EE14D064D5073
:1009AE00000A0AE144C0E1FF45C0E2FF2E0EE66EEA
:1009BE00444A452A010E4C6E4706A9D7FF0E442421
:1009CE00E96EFF0E4520EA6EEE50300A05E1010E8B
:1009DE00445E000E455AF2D7FF0E4424E96EFF0E18
:1009EE004520EA6EEE502E0A04E1010E445E000E22
:1009FE00455A4D50000A41E044C0E1FF45C0E2FFB8
:100A0E00650EE66E444A452A800E4D18006E800E25
:100A1E00000A005C0BE244C0E1FF45C0E2FF2D0E70
:100A2E00E66E444A452A4D5000084D6E4DC047F0C3
:100A3E00800E090A006E800E4D18005C0EE20A0E42
:100A4E00046E47C000F0B6DC44C0E1FF45C0E2FFD3
:100A5E000050300FE66E444A452A0A0E046E47C017
:100A6E0000F0A8DC08C000F044C0E1FF45C0E2FF82
:100A7E000050300FE66E444A452A44C0E1FF45C09F
:080A8E00E2FFE66A006A1200B3
:100A960061EC05F041DD410EC26EC00EC16E928062
:0E0AA6009E9C9D8CF28CF28EC284FFD7FFD7EF
:100AC20010EE19F00E0E006E010E016EB40EF66EEF
:0E0AD2000A0EF76E000EF86EDAEC02F012005B
:040AB4000A28207775
:040AB8004E614E003D
:040ABC00494E460059
:020AC000300004
:020000040030CA
:0D000100220F0EFF0181FF0FC00FE00F4026
:00000001FF
